:100000000C945A020C9477020C9477020C947702A9
:100010000C9477020C9477020C9477020C9477027C
:100020000C9477020C9477020C94621C0C94361D8D
:100030000C9482170C9477020C9477020C9477023C
:100040000C9477020C9477020C9477020C9477024C
:100050000C9477020C9409180C9477020C94770294
:100060000C9477020C9477020C9477020C9477022C
:100070000C9477020C9477020C9477020C9477021C
:100080000C9477020C9477020C9477020C9477020C
:100090000C9477020C9477020C9477020C947702FC
:1000A0000C9477020C9477020C94770229001400C8
:1000B0001A000800150017001C0018000C001200A0
:1000C00013002A002B0004001600070009000A0094
:1000D0000B000D000E000F0033003400E1001D0086
:1000E0001B00060019000500110010003600370043
:1000F00038002800E000E300E200650023522C00F5
:10010000000024525000520051004F002B001400F8
:100110001A00090013000A000D000F0018001C004F
:1001200033002A00290004001500160017000700FC
:100130000B00110008000C0012003400E1001D004B
:100140001B000600190005000E00100036003700E5
:10015000380028000578E000E200E30023522C007C
:10016000000024525000520051004F002B00340078
:100170003600370013001C0009000A0006001500B5
:100180000F002A00290004001200080018000C00CB
:1001900007000B001700110016003800E1003300C3
:1001A00014000D000E001B00050010001A001900BD
:1001B0001D0028000578E000E200E30023522C0037
:1001C000000024525000520051004F0035021E0220
:1001D0001F0220020100220223022402250226021D
:1001E00027022A004C003A003B003C003D003E0044
:1001F0003F002D002E002F0030003102E1004000B2
:1002000041004200430044004500AA003600370088
:1002100038002800E000E300E200065201002C0054
:10022000000000004A004B004E004D0035001E004B
:100230001F002000210022002300240025002600AA
:1002400027004C002A003A003B003C003D003E00E5
:100250003F002D002E002F0030003100E100400053
:100260004100420043004400450032006400A90000
:10027000AA002800E000E300E200460000002C0095
:10028000000001004A004B004E004D0029003400E0
:100290003600370013001C0009000A000600150094
:1002A0000F002A002B0004001200080018000C00A8
:1002B00007000B001700110016003800E1003300A2
:1002C00014000D000E001B00050010001A0019009C
:1002D0001D002800E000E300E200065203522C005B
:1002E000000004525000520051004F0029000052FB
:1002F0000152025203520452055206524600A9000E
:10030000AA004C003A003B003C003D003E003F008C
:100310004000410042004300440045001E001F0011
:1003200020002100220023002400250026002700B1
:1003300000002800E000E300E200650001002C005E
:10034000000001005000520051004F000E03430016
:100350006F006E0074007200610000000E03430025
:1003600061007200740065006C0000000403090461
:1003700009023B00020100A0FA0904000001030188
:100380000100092111010001224000070581030835
:10039000000109040100010300000009211101000E
:1003A0000122B600070582032000011201000200AD
:1003B0000000085443010001000102000105010989
:1003C00002A10185020901A10005091901290815E9
:1003D00000250195087501810205010930093115D3
:1003E00081257F95027508810609381581257F953D
:1003F0000175088106050C0A38021581257F9501D3
:1004000075088106C0C005010980A1018503190195
:100410002AB700150126B700950175108100C005A7
:100420000C0901A101850419012AA002150126A0C9
:1004300002950175108100C005010906A10185061C
:10044000050719E029E715002501950875018102C6
:100450000507190029EF1500250195F075018102A6
:100460000508190129059505750191029501750386
:100470009101C005010906A101050719E029E71549
:100480000025019508750181029501750881010516
:1004900007190029FF150026FF0095067508810041
:1004A0000508190129059505750191029501750346
:1004B0009101C00011241FBECFEFDAE0DEBFCDBF37
:1004C00011E0A0E0B1E0E6EBFFE302C005900D9281
:1004D000A639B107D9F722E0A6E9B1E001C01D9223
:1004E000AA3AB207E1F70E94A8110C949A1F0C9443
:1004F00000008730B8F46430A8F44C3098F450E031
:100500009CE0699F400D511D1124FA0190E3899FE1
:10051000E00DF11D1124EE0FFF1FE455FF4F8591F3
:100520009491089581E090E008950E9479020895E1
:1005300081E0089581E008950E949A020895089547
:100540000E949F020895A5E0B0E0E9EAF2E00C9471
:10055000061F49835A8330919D0189819A81311107
:1005600019C0662399F0222389F00E944408182FAD
:10057000682F89819A810E94200869817A81812F60
:100580000E94190F2596E3E00C94221F0E94320866
:10059000182FF3CF0E94440869817A81F1CFFC01C2
:1005A000262F408151816281738184810E94A30240
:1005B000089581E00895CF93DF93EC0160E00E94FD
:1005C000CF02BE010E94A002DF91CF91089508954D
:1005D0000E94EF060E94E7022FEF84E39CE0215087
:1005E00080409040E1F700C0000008950E94E802BA
:1005F0000E942D1808950E94E8020E943E18089556
:100600000F931F93CF93DF938C0161E00E94CF0281
:10061000EC01B8010E949C02811106C080E0DF91CC
:10062000CF911F910F910895B801CE010E94A3159B
:100630008823A1F3B801CE010E943914882371F3F5
:10064000B801CE010E941515882341F3F80182817B
:10065000882361F0C330FCE7DF07E9F058F4C115E7
:10066000ECE7DE07A9F0C130DC47B9F0C8010E9411
:100670009802D5CFCB358CE7D807A9F0CC35ECE77D
:10068000DE0771F0CA35DC4789F70E94750CEECFA2
:100690000E94F602C3CF0E947D0C0E94FB02BECFD7
:1006A0000E946B0CE3CF0E94790CE0CF0E945E1792
:1006B0000E947D0308950E9481030E94631708959C
:1006C000089581E008950895CF93DF93D82F0E9475
:1006D0006103C82F882319F08D2F0E9463038C2F8C
:1006E000DF91CF9108950895CF93C82F0E946003A2
:1006F0008C2F0E946403CF91089580E00E947403C0
:1007000008950E94F1150E9474030895CF930E94EA
:10071000F115C82F809198018C1779F0C09398013A
:100720000E94EE176093990170939A0180939B0148
:1007300090939C018C2F0E947403CF910895ABE09D
:10074000B0E0E5EAF3E00C94071F4F835887698710
:100750007A878B8761110E94B60B1E821D8285E00D
:10076000FE013796DE01119601900D928A95E1F710
:100770008C819D81892B61F449815A816B817C81B7
:100780008D819E810E94DE0A2B96E2E00C94231F4D
:1007900089819A8189238F3F79F3CE0101960E9446
:1007A000D9028111E9CFF0CFFC01808191810E94B3
:1007B00076080895662329F00E942C120E94FF12E9
:1007C00008950E948612FACFCF93C82F8823B9F0DC
:1007D0008CEF8C0F813AA8F46C2F809100019091DE
:1007E00001010E948416882329F08C2F0E94760B29
:1007F0000E94D70B8C2F0E946E0B0E94D70BCF91BB
:10080000089580E28C0F883048F4C77081E001C001
:10081000880FCA95EAF70E94990BEFCFEBE5EC0F32
:10082000E33040F4F0E0E75BFE4F808190E00E940F
:100830002616E5CFE8E5EC0FEB3150F4F0E0EE0FD3
:10084000FF1FED5EFE4F808191810E944B16D7CF36
:1008500083E38C0F833198F661E08C2F0E94DA03DA
:10086000CECF882381F19CEF980F913A28F40E9413
:10087000760B0E94D70B089590E2980F983050F4B1
:10088000877091E001C0990F8A95EAF7892F0E943D
:100890009F0BEFCF9BE5980F933028F490E080E01A
:1008A0000E942616089598E5980F9B3128F490E051
:1008B00080E00E944B16089593E3980F933118F44B
:1008C00060E00E94DA0308951F93CF93DF93182FFF
:1008D000EB010E94E403209739F4812F0E94310438
:1008E000DF91CF911F9108958FE99FE00197F1F774
:1008F00000C000002197EFCF70E060E0893311F471
:1009000060E570E00E9464040895882321F00E944D
:10091000990B0E94D70B0895882321F00E949F0B0A
:100920000E94D70B0895B0E0A0E0E9E9F4E00C9450
:10093000001F6C01D62FC72FFC0112810581029583
:100940000F700E948F0BE82E8823E9F0E12E11230F
:10095000D1F08C2F807F803451F080E28D0F883071
:10096000F8F0011104C08C2F807E8032C9F0809194
:10097000880282FF15C082E00E943A0C0E948F0B11
:1009800091E0E82EE926BC2EB2949FE0B922FBE06C
:10099000FB15B8F1EB2DF0E0E456F04E0C94F11E8F
:1009A000E12CF1CF0C2F0F70C07F11F00295007F6A
:1009B000112399F0002359F080E28D0F883010F058
:1009C000D11107C0802F0E94990B0E94D70B8D2F49
:1009D00063C0802F0E94A90BF8CF8D2F0E94310495
:1009E000002379F080E28D0F883010F0D11104C01F
:1009F000802F0E949F0B03C0802F0E94AF0B0E948C
:100A0000D70B2B2D2850330B2430310520F40E94B6
:100A1000F1150E947403EE2089F00E948B0B80FD7B
:100A20000DC0F60112820E94850B0E947E07C6014E
:100A30000E94AF060E94850B0E948E07CDB7DEB7DD
:100A4000E9E00C941C1F2C2F2F70F22EC07FC032B7
:100A500019F0F29480EFF822DD2381F0D13009F40F
:100A600049C0112309F451C0002309F448C0F6011C
:100A7000858180FFACCF8F70858341C080918802D3
:100A800082FD15C0112359F0FF2029F08F2D0E94FF
:100A9000990B0E94D70B80E00E94E403B2CF80E064
:100AA0000E943104FF2009F4ACCF8F2DA2CF112377
:100AB00081F0011106C00E94B90B8F290E948504A4
:100AC000A0CF0130C1F70E94B90B8F290E94C00B43
:100AD00098CF011106C00E94CD0B8F2D0E948C046F
:100AE00090CF013009F48DCF8F2D0E948C040E948D
:100AF000CD0B87CF112329F0063008F082CF8F2D40
:100B0000DDCF053008F07DCFE8CF002331F3D933B6
:100B100049F4FFEF27EE33E0F15020403040E1F799
:100B200000C000008D2F0E9431046BCF8C2F869562
:100B30008695837069F0813009F063CF8D2F9C2FEB
:100B40009370111102C080E090E00E944B1659CFC3
:100B50008D2F9C2F9370111102C080E090E00E94B5
:100B600026164FCF612F8D2F0E94DA034ACF8C2F8C
:100B70008370A1F5111145CF4D2F429546954770D1
:100B8000440F440F2D2F2F7030E0042E02C0220F8F
:100B9000331F0A94E2F790E080E0D4FF09C08FE0B1
:100BA00090E002C0880F991F4A95E2F780959095D2
:100BB000C695C695C370822B932BC23049F058F46A
:100BC000C13019F00E944E071CCF0E94450719CF73
:100BD0000E94570716CF0E94420713CF8695112314
:100BE00011F08C2F8170882309F40BCF4D2F429583
:100BF00046954770440F440F2D2F2F7030E0042E80
:100C000002C0220F331F0A94E2F790E080E0D4FF85
:100C100009C08FE090E002C0880F991F4A95E2F763
:100C200080959095C695C695C370822B932BC23044
:100C300049F058F4C13019F00E94B907E2CE0E9481
:100C4000B007DFCE0E94C207DCCE0E946607D9CE75
:100C5000CF70112329F08C2F0E947E078D2F2ECF6D
:100C60008D2F0E948C048C2F0E948E07CACED23FFB
:100C700041F160F4D03FB9F0D13F81F0112309F484
:100C800046C00111A4CE8C2F8F711FC0D33F01F13C
:100C9000D43FA1F78091880282FD24C08C2F8F71F0
:100CA000112311F312C0112341F0053008F0A9CE31
:100CB0008C2F8F710E94A007A4CE063008F0A1CE21
:100CC000F7CF8C2F8F711111CFCF0E947E0799CE55
:100CD000112329F08C2F8F710E94720792CE0E94EF
:100CE0006D078FCE112349F0CF718C2F0E947E07A4
:100CF00063E08C2F0E941C0C84CE81E00E943A0C91
:100D0000023008F47ECE82E00E943A0C7ACE0023B4
:100D100059F0D93309F006CF8FEF97EEE3E0815019
:100D20009040E040E1F7FCCE8C2F8F719DCF0F9368
:100D30001F93CF93DF93EC01688179818A810E94B0
:100D400081088C010E94CB070E944107B801CE01A7
:100D50000E949304DF91CF911F910F910895CF933B
:100D6000DF93EC018B819C81892B29F0888199810B
:100D700089238F3F51F4DF91CF910895CE010E94D6
:100D80009706CE010E94DB02F6CFCE010E9400033F
:100D90008111F4CF0E948F0B882369F38A81882305
:100DA00051F38091880282FFE6CF82E00E943A0CE4
:100DB000E2CF90E080E00E94261690E080E00E9462
:100DC0004B160E94B60B0E94D70B0E941B130E9469
:100DD000FF1208950E947E0B0E94D90608950E947A
:100DE000A60B0E94EA06089592959F70963091F0A6
:100DF00058F4925F9F70923058F4803F19F030F4AD
:100E0000883E30F481E008959A5FF4CF843FD1F3B7
:100E100080E00895883EB0F3813FD1F7F3CFFC0125
:100E200083819481892B29F08081918189238F3F4F
:100E300011F480E00895808191810E9476080E94DB
:100E4000F4060895A5E0B0E0E8E2F7E00C94071F8F
:100E50002596E2E00C94231FA6E0B0E0E2E3F7E081
:100E60000C94071F2696E2E00C94231F08950E941D
:100E7000360708950E9437079093B9018093B8010F
:100E8000089508950E943A0708952091B80130917D
:100E9000B901822B932B0E943A0708952091B80143
:100EA0003091B901822393230E943A07089520913B
:100EB000B8013091B901822793270E943A0708951B
:100EC0000E94360708950E94600708950E946307F4
:100ED0009093B7018093B601089590E080E00E945E
:100EE0006607089521E030E0A90102C0440F551FB4
:100EF0008A95E2F7CA010E946607089521E030E072
:100F000002C0220F331F8A95E2F78091B6019091BB
:100F1000B701822B932B0E946607089521E030E0F1
:100F200002C0220F331F8A95E2F7209530958091F9
:100F3000B6019091B701822393230E94660708951A
:100F400021E030E002C0220F331F8A95E2F7809142
:100F5000B6019091B701822793270E9466070895F2
:100F60002091B6013091B701822B932B0E94660726
:100F700008952091B6013091B701822393230E94F6
:100F8000660708952091B6013091B7018227932713
:100F90000E94660708950895262F277091E001C0EA
:100FA000990F2A95EAF723E0769567952A95E1F758
:100FB000660F771F660F771FFA01E60FF71F50E0E5
:100FC00040E0682F70E08191DF0111979B01042EB2
:100FD00002C0369527950A94E2F7217021952827BB
:100FE000292328272C934F5F5F4F4430510559F731
:100FF0000895A82FA77023E0969587952A95E1F785
:10100000880F991F880F991FFB01E80FF91F50E007
:1010100040E080E0219130E00A2E02C0369527950D
:101020000A94E2F721703327042E01C0220F0A949C
:10103000EAF7822B4F5F5F4F4430510559F708950F
:10104000262F943070F48C3060F4682F70E08CE0C0
:10105000989F600D711D11244EE951E0822F0E946E
:10106000CC070895292F943068F48C3058F490E020
:101070006EE971E03CE0239F800D911D11240E94D8
:10108000F907089580E00895B0E0A0E0EAE4F8E010
:101090000C94001F7C010091B6011091B701809162
:1010A000B8019091B901082B192BCFE0D0E0CC24E6
:1010B000C394D12CBC2EC6010C2E02C0880F991FE0
:1010C0000A94E2F780239123892B49F4219790F722
:1010D000B12C8B2DCDB7DEB7E9E00C941C1FB70106
:1010E0008C2F0E94250F019789F3F3CFCF93DF93C5
:1010F000EC010E944408BE010E94250FDF91CF91B0
:1011000008951F93CF93DF93EB0190919D01992355
:1011100039F0CB010E947608DF91CF911F9108959D
:10112000882369F0CB010E944408182F682FCE0154
:101130000E942008BE01812F0E94250FEDCFCB0118
:101140000E943208182FF6CF1F93CF93DF93C091E0
:10115000BA0116E08091BB018C1304C0DF91CF91DE
:101160001F910895D0E01C9FF0011D9FF00D1124E8
:10117000E454FE4F40815181628173818481958165
:101180000E942C072196C770E5CF4091EC01509149
:10119000ED016091EE017091EF018091F00190916D
:1011A000F1010E942C0708952091BA019091BB0192
:1011B00056E0291302C080E0089530E0529FF0010C
:1011C000539FF00D1124E454FE4F7181761306C035
:1011D0007081781303C07281741304C02F5F3F4F76
:1011E0002770E7CF81E008951F93CF93DF9380911D
:1011F000F101807F09F04BC08091EE01882309F452
:1012000046C08091BA01C091BB014091EC01509160
:10121000ED016091EF017091F001D42FD52316E01C
:10122000C817A9F190E061157105A9F1DF3F99F1A7
:10123000189FF001199FF00D1124DF01A454BE4F37
:1012400011962C911197251326C02C91241323C09D
:1012500012962C91129721111EC013962D913C913C
:10126000261B370B283C3105B0F48091F1018F70BB
:1012700080618093F101EF53FE4F80818F70806118
:1012800080838CEE91E00E94AF060E94A408DF915B
:10129000CF911F91089501968770C2CFA1E1B0E070
:1012A000E4E5F9E00C94FD1E8C0185E0F801DE0117
:1012B0001D9601900D928A95E1F7F801F2808CEE6F
:1012C000A82E81E0B82E4091EF015091F001411518
:1012D000510509F45AC19091EC012091ED01892F3B
:1012E00082238F3F09F451C1C080D18083809480D4
:1012F000E090EE01B401641B750BEE2009F4F6C01A
:101300008091F101382F307F683C710508F0AFC043
:1013100031117AC0EF2C2D1116C09C1114C0F110A0
:1013200012C08F7080618093F1010E94C508C501D1
:101330000E94AF068091F101F80185838E2D6196A0
:10134000ECE00C94191F81149104C9F18C2D8D21AE
:101350008F3FA9F181E08F2580FF05C04F2D6D2DB6
:101360008C2D0E94D4088114910459F18C2D8D216B
:101370008F3F39F181E08F25F82FF170BF2E80FF6C
:1013800039C04F2D6D2D8C2D0E94D408A82E8111AF
:1013900031C0CD86DE868D859E850E947608292FF8
:1013A00022952F70243078F49F702230A8F0992372
:1013B000B9F0F8019581907F99F4EA2CBFCF80E0D5
:1013C000CBCF80E0D9CF2A5F2F70223068F0C801E0
:1013D0000E94AF06AB2CF1CF992311F0882369F35B
:1013E000805E883050F3F3CF803F38F3815F8330E5
:1013F00070F7E3CFFF2009F4A1CF8091F101816064
:101400008093F101E12C9ACF2D1105C09C1103C0EE
:10141000FF2009F486C0C8010E940F07882319F134
:10142000FF2009F18091F101803270F02091EC01F0
:101430003091ED0138872F8319869B868A868C87A9
:10144000CE0107960E94AF0686E0F801ACEEB1E04F
:1014500001900D928A95E1F70E94F4080E94C50858
:10146000EE24E3946BCFC8010E94AF06F9CF31118F
:1014700014C0782D998A888AA6016F2D89890E94C7
:1014800022078CEE91E00E94AF0686E0F5011192F2
:101490008A95E9F70E94C508B5CF2D110EC09C11A1
:1014A0000CC0F1100AC08583C8010E94AF0686E017
:1014B000F50111928A95E9F741CFC8010E940F0703
:1014C000882389F2FF2079F28091F101803208F4BB
:1014D000BBCF2091EC013091ED013A8329831B822F
:1014E0009D828C828E83CE010196ACCF683C7105C3
:1014F00008F03DC0EF2CFF2009F4B5CF2D1129C015
:101500009C1127C08091F10180FD1AC0982F907F17
:10151000B9F08583903F31F0982F907F905F8F7066
:10152000892B8583C8010E94AF0686E0F801ACEEE6
:10153000B1E001900D928A95E1F70E94C508FECEB8
:1015400086E0F801ACEEB1E001900D928A95E1F7EA
:10155000F5CEC8010E940F07811176CF8091F1016D
:1015600081608093F101C8010E94AF06E7CE782D1B
:10157000998A888AA6016F2D89890E94220786E0B0
:10158000F50111928A95E9F7D8CFFF2009F46BCFC6
:10159000C8010E940F07E82E882309F464CF86E073
:1015A000F801ACEEB1E001900D928A95E1F78CEE76
:1015B00091E00E94D4030E94F408BFCFACE0B0E0F9
:1015C000E4EEFAE00C94061F4F83588769877A8708
:1015D0008B879C87CE0107960E944E098823B1F025
:1015E0008A859B85892B39F04F815885842F8523E7
:1015F0008F3F09F06CC016E08091BA019091BB0159
:10160000891343C02C96E3E00C94221F86E0FE0170
:101610003796DE01119601900D928A95E1F78A8541
:101620009B85892B41F38F81988589238F3F19F3FF
:101630002091BB0130E0C901019687709927409144
:10164000BA014817190671F40E94EF061092BB0107
:101650001092BA0186E0ECEEF1E0DF011D928A956E
:10166000E9F7C9CF96E0929FD001939FB00D112466
:10167000A454BE4FFE01319601900D929A95E1F768
:101680008093BB010E94A408B6CF819FC0011124A2
:1016900084549E4F0E944E09882309F4B3CFE091F1
:1016A000BA011E9FF0011124E454FE4F4081518184
:1016B00062817381848195810E942C078091BA0197
:1016C00090E00196877099278093BA0195CF69853C
:1016D0007A858B859C850E942C078DCF682F809101
:1016E0000001909101010E9404170895682F8091D4
:1016F0000001909101010E9412170895809100014C
:10170000909101010E942017089580911202859501
:10171000859585950895809112028770089590911E
:101720001202977081E009F480E0089580913502FB
:10173000089590913502892B809335020895809504
:1017400090913502982390933502089510923502B6
:10175000089590913402892B8093340208958095E6
:101760009091340298239093340208951092340299
:10177000089580911302089508950E94BC0B089566
:101780009091880292FF08C090911302981721F05F
:10179000809313020E94BD0B089580911302882349
:1017A00029F01092130280E00E94BD0B0895CF93A0
:1017B000DF93E0910001F091010180913502808377
:1017C000E0910001F0910101808190913402892B18
:1017D000808390911302992381F0E0910001F091B0
:1017E00001018081892B808380910001909101010A
:1017F0000E94701681110E94CD0BC0910001D09102
:10180000010140E250E062EF71E0CE010E94421F10
:10181000892B59F080E2FE01A2EFB1E001900D9218
:101820008A95E1F7CE010E94FE15DF91CF910895D0
:1018300008950E94180C08959091880292FF11C09B
:1018400098E0899F90011124622B609312020E94FC
:101850007E07809112028595859585950E94190CC9
:1018600008950E947E0708951092120280E00E945F
:10187000190C089590911202809589238093120289
:10188000282F277091F4282F082E000C330B921765
:10189000130659F09091880292FF07C085958595AF
:1018A00085950E948E070E94340C089590918802BD
:1018B00092FB222720F9281769F080FB92F9909378
:1018C000880280918702909188020E949E0C82E09B
:1018D0000E943A0C08958091880282FB882780F943
:1018E00091E089270E94560C089581E00E94560CD1
:1018F000089580E00E94560C08956FEF7FEF90E00E
:1019000080E00E94841F089590E080E00E94601FA4
:1019100021E0873E9E4F09F020E0822F089582E06B
:1019200090E00E94581F089583E090E00E94581FA5
:10193000089584E090E00E94601F0895BC0184E057
:1019400090E00E94841F0895AB01BC018FE090E0FD
:101950000E94781F0895AB01BC0183E190E00E94D2
:10196000781F089560E070E0CB010E94AB0C0895F1
:1019700060E070E0CB010E94A40C0E94B20C0895BC
:1019800067EE7EEF90E080E00E94841F60E082E0DE
:1019900090E00E94661F60E083E090E00E94661F76
:1019A0001092B9011092B80160E074E184E090E017
:1019B0000E94841F60E086E090E00E94661F6FEF47
:1019C00087E090E00E94661F40E050E0BA0188E0A6
:1019D00090E00E94781F60E08DE090E00E94661F1A
:1019E00040E050E0BA0188E190E00E94781F60E09A
:1019F00087E190E00E94661F40E050E0BA018CE170
:101A000090E00E94781F70E060E080E290E00E9429
:101A1000841F40E050E0BA0188E190E00E94781F06
:101A20000E94B80C08950E94C00C0895682F8EE0A3
:101A300090E00E94661F0895A5E0B0E0E2E2FDE0BC
:101A40000C94051F0E94E2178C0180913602909140
:101A5000370280179107A1F08FEF89838A831B8259
:101A60000E94E2178160782F9D838C8349815A817F
:101A70006B818D810E949F03109337020093360281
:101A80002596E4E00C94211F0E94EE176093440217
:101A90007093450280934602909347026093400200
:101AA00070934102809342029093430208950895F7
:101AB00008950E94580D089508950E945C0D0895A0
:101AC00081E008958FE090E10E94E7150E94570D94
:101AD0000E94590D08950E94600D08950E946B0D9B
:101AE0000895089508950E94710D0E94720D089541
:101AF0000E942E100E94730308950E94D9170E941D
:101B000009110E94780D0E945D0D0895A5E0B0E0D6
:101B1000ECE8FDE00C94FC1E0E94600D81110AC0EF
:101B20000E941C0D0E943D130E9486032596EDE045
:101B30000C94181F0E941F1128E3822E22E0922E7F
:101B4000640110E0F601E190F1906F01812F0E9495
:101B500054101F5F143009F449C0E816F90691F3D8
:101B60008091480281FD0E945D100E946E0D782ECA
:101B700010E0812F0E9454107C01F401A190B190DB
:101B80004F018A159B0561F100E0CC24C394D12C50
:101B9000AE24BF24C5018C219D21892BC1F0772063
:101BA000B1F009831A8321E0C7018C219D21892B83
:101BB00009F420E02B830E94E2178160782F9D8337
:101BC0008C8349815A816B818D810E949F030F5FB5
:101BD000CC0CDD1C0C30F1F6F4013297F182E0827E
:101BE0001F5F143031F60E94440D9CCFE816F906B1
:101BF00009F0B6CF95CF1F93CF93DF930E942A0FA2
:101C0000EC01C11580E5D807F0F5C11580E4D807CF
:101C100008F09CC0C03ED10520F5CD3CD10508F0B0
:101C200082C0C83AD10578F4C53AD10508F073C02E
:101C3000C130D10519F1209709F1C430D105F0F474
:101C4000D0E0C0E01BC0C33CD105D0F7C85AD0E0FB
:101C5000CC0FDD1FC45BDE4F0990D881C02DD4644A
:101C60000DC0C11580E2D80708F0D1C0C11581E0D0
:101C7000D80708F05AC0C83ED10510F7CE01DF9151
:101C8000CF911F910895C03682E5D80718F5C0346A
:101C900082E5D80708F06BC0C03282E5D80708F0AB
:101CA0005FC0C11582E5D80708F497C02C2F269590
:101CB000269580E2289F900111248C2F8370C1E02B
:101CC000D0E002C0CC0FDD1F8A95E2F7C22BD32BE8
:101CD000DD68D4CFC03A82E5D80760F4C03882E529
:101CE000D80708F459C0CF71D0E0DC2FCC27C46FDF
:101CF000D06AC4CFC03C82E5D80708F462C0C03EB9
:101D000082E5D80708F09CCFDC2FCC27CC27DF71E9
:101D1000C06FD06AB3CFC55AD0E0CE57DE4FC8816E
:101D2000D0E0D064ABCFD065A9CF8D2F0E94CC0F6F
:101D3000182FCE0199270E942A0FC12FD0E0DC2F47
:101D4000CC27CC27DF71C82BD92B98CFCE01992770
:101D50000E942A0FCC27DF70C82BD92BD06A8ECFD8
:101D6000CF71D0E0DC2FCC27C16FD06A87CF2C2F6A
:101D700026952695277080E2289F900111248C2FAC
:101D80008370C1E0D0E002C0CC0FDD1F8A95E2F77E
:101D9000C22BD32BDC6872CF2C2F2695269527706B
:101DA00080E2289F900111248C2F8370C1E0D0E045
:101DB00002C0CC0FDD1F8A95E2F7C22BD32BDA6865
:101DC0005DCF8C2F8F710E94CC0FC82FD0E0DC2FFD
:101DD000CC27CC27DF71D06251CF8C2F8F710E941E
:101DE000CC0F55E0D695C7955A95E1F7CF70D0E066
:101DF000DC2FCC27282F30E084FF05C044E0220FE1
:101E0000331F4A95E1F7C22BD32BD06937CF8D2FE3
:101E10008F710E94CC0F182FCE0199270E942A0F94
:101E2000C12FD0E0DC2FCC27CC27DF71C82BD92BDA
:101E3000D2CF462F743030F46C3020F4672F0E94DC
:101E40009502089590E080E008950E94190F0E9485
:101E5000FB0D089582389105B9F1B0F481339105F5
:101E600009F47DC048F48932910509F46DC08A32C5
:101E7000910509F47BC008958533910509F45FC08D
:101E80008933910509F10895833E9105D9F138F41C
:101E9000803E910529F1823E910579F10895863EB3
:101EA0009105D9F1873E910509F43EC0843E910524
:101EB00041F52091880221FF24C08091870284FD92
:101EC00019C087EE90E0089520918702237009F0F1
:101ED0005AC02091880223FF14C089E290E008953F
:101EE0002091870220FD38C03091880230FF09C060
:101EF00024FF43C090E080E008952091870222FDF6
:101F0000F7CF08952091870222FD3AC030918802D0
:101F100030FD39C024FFF5CFEDCF2091870223FF9C
:101F2000F0CF24FDE7CFCDCF2091870223FD2EC037
:101F30003091880231FFEECF84EE90E00895209139
:101F4000870225FFDECFC9CF2091870225FD21C062
:101F50002091880223FFD5CF89E390E0D2CF209152
:101F6000870226FFCECF8AE290E008952091870273
:101F700026FFC7CF81E390E0089583EE90E00895B7
:101F800082EE90E0089580EE90E0089586EE90E075
:101F9000089585E390E008959091870292FF06C02E
:101FA000282F28712830F9F4877F846093FF06C0BA
:101FB000282F28712831F1F4877E846120918802CE
:101FC00020FF06C0382F38713830D9F4877F816000
:101FD00021FF06C0282F28712831D1F4877E816126
:101FE00094FD877E0895282F24712430F9F68B7F85
:101FF0008860DCCF282F2471243101F78B7E886123
:10200000DDCF382F3171313019F78E7F8860E0CF06
:10201000282F2171213121F78E7E8861E1CF80E068
:1020200008950E947D0C08950E941F112FEF86E7EE
:1020300091E0215080409040E1F700C000000E94F4
:102040001F1180E00E94541080FF04C00E941110F4
:102050000E942D1808950E94141008950E94840C67
:10206000811102C00E94130D0E948F0C80934802C0
:102070000E94990C90938802809387020E942B10F3
:102080000E94940C90E00E9442078091B6019091CA
:10209000B7010E946307089508950E944C100895A7
:1020A00008950E9450100895E82FF0E0EE0FFF1FF2
:1020B000EF56FD4F808191810895089580EA8A95B9
:1020C000F1F7089500C008950E945E100895F894F5
:1020D000E82FE295EF70F0E031A1282F2F7081E01A
:1020E00090E001C0880F2A95EAF7982F90959323E6
:1020F00091A392A1892B82A378940895CF93DF9323
:1021000086EF0E94671083E30E94671082E30E94BB
:10211000671086E30E946710C5E8D1E089918F3F80
:1021200011F00E94671081E0C139D807B9F7DF913B
:10213000CF910895AF92BF92DF92EF92FF920F93EB
:102140001F93CF93DF938C01D62EC62FD0E0CE0104
:102150008F569E4F7C01FC0120812F3F09F44CC01B
:10216000F894E22FE295EF70F0E031A12F7081E05A
:1021700090E001C0880F2A95EAF7932F982B91A33E
:1021800092A18095892382A378940E946210E5E849
:10219000F1E041E050E0B12CA12C21912F3FB1F1B1
:1021A000A22FA295AF70B0E090968C9190E02F7026
:1021B00002C0959587952A95E2F780FD27C0CA0150
:1021C000A82AB92A440F551F81E0E139F80729F7F9
:1021D000F70180818F3F11F00E94671061E0A11428
:1021E000B10409F460E08D2D0E946410CC0FDD1F56
:1021F000C00FD11FB982A882DF91CF911F910F919B
:10220000FF90EF90DF90BF90AF90089590E080E056
:10221000D7CF0E947E1088E0E1E9F2E0DF01982F3D
:102220001D929A95E9F7E9E8F2E0DF011D928A959F
:10223000E9F784E00E945A110E944D100895A8E029
:10224000B0E0E5E2F1E10C94041F8E010F5F1F4F37
:1022500088E0F80111928A95E9F7F12C6F2DC801F9
:102260000E949A10F394F4E0FF12F8CF48E050E097
:10227000B80189E892E00E94421F21E0009709F42A
:1022800020E0892B41F088E0F801A9E8B2E0019054
:102290000D928A95E1F744E061E972E089E892E005
:1022A0000E945B11182F0E945110812F2896E5E0A3
:1022B0000C94201F0895CF92DF92EF92FF921F930C
:1022C000CF93DF936C017B01C42F222349F081E07F
:1022D00080934B020E94E21790934A028093490236
:1022E00010914B0211110AC010E0812FDF91CF91A4
:1022F0001F91FF90EF90DF90CF9008958091490259
:1023000090914A020E94FA17059770F3D0E0CC0F23
:10231000DD1FAE01B601C7010E94421F892B41F0AB
:10232000AE01B601C7010E944F1F10924B02DDCFD4
:1023300010E0FBCF0E94B3190E947D0D0E94C019CE
:1023400008950E94C5190E94860D0E94DF19089504
:102350000E947B170E9499190E94620D0E949A1197
:102360000E94A1110E94730DFBCF8091520280FF49
:102370000DC06091070170E0660F771F603871052E
:1023800070F56115710569F1862F089581FF07C009
:102390006091070184E0689FB0011124EFCF609144
:1023A000070182FD0AC0809151028823A9F0209183
:1023B000060160910701821710F088E0ECCF869F3C
:1023C000C001112433E0880F991F3A95E1F7622F7D
:1023D00070E00E94DD1ED2CF68E070E0D5CF8FE7BD
:1023E000089581E008958091520280FF0CC06091B1
:1023F000030170E075956795759567956115710591
:1024000049F1862F089581FF06C06091030170E0B5
:1024100075956795F3CF6091030182FD0BC0909194
:1024200050029923A1F06091020180910301961757
:1024300038F0682F70E06038710500F38FE7089579
:10244000899FC001112470E00E94DD1EF4CF61E07D
:1024500070E0D7CF81E008958D3C31F40E94B51132
:1024600081958093560208958E3C19F40E94B5110F
:10247000F8CF8F3C31F40E94B511819580935502BD
:102480000895803D19F40E94B511F8CF893D29F4D3
:102490000E94F3118093570208958A3D21F40E940F
:1024A000F3118195F7CF8B3D31F40E94F3118195A3
:1024B0008093580208958C3D19F40E94F311F8CFCF
:1024C0009FE2980F983070F4815D990B21E030E025
:1024D00001C0220F8A95EAF780915402822B8093E3
:1024E000540208958D3D31F48091520281608093B1
:1024F000520208958E3D21F4809152028260F7CFFE
:102500008F3DB9F7809152028460F1CF409155021E
:102510008D3C59F48091560287FF0DC010925602EF
:1025200041110BC01092510208C08E3C81F4809181
:10253000560218169CF3442381F080915702909123
:102540005802892B09F05AC01092500208958F3C0E
:1025500049F447FFF0CF1092550280915602811145
:10256000ECCFE0CF803D19F41416ACF3E4CF90919A
:102570005702893D29F41916F4F610925702DBCF61
:102580008A3D19F497FFD7CFF8CF909158028B3D31
:1025900029F497FFD0CF10925802CDCF8C3D19F47B
:1025A0001916CCF3C8CF9FE2980F983090F4815D54
:1025B000990B21E030E0B90102C0660F771F8A95C0
:1025C000E2F7CB01809590915402892380935402C5
:1025D000B2CF8D3D31F4809152028E7F80935202B2
:1025E000AACF8E3D21F4809152028D7FF7CF8F3D8F
:1025F00009F0A1CF809152028B7FF0CF08950E9405
:10260000E2179C019091550280915602982B21F07F
:1026100030934F0220934E029091570280915802BE
:10262000982B21F030934D0220934C0283E592E0E9
:102630000E941816089586E0E3E5F2E0DF011D929E
:102640008A95E9F7109251021092500210925202AC
:102650000895FC01828181110EC0838181110BC01C
:102660008481811108C091E08581811101C090E0D1
:10267000892F8170089581E0FCCFA6E0B0E0E3E40B
:10268000F3E10C94061F86E0E3E5F2E0DE0111962B
:1026900001900D928A95E1F7109255021092560220
:1026A00010925702109258028B819C81892B89F0DD
:1026B00080914E0290914F020E94FA17AC019091C6
:1026C00051029923C9F1809108018417150608F475
:1026D00040C08D819E81892B91F080914C02909118
:1026E0004D020E94FA17AC0190915002992309F40F
:1026F00071C0809104018417150608F479C0BE01E9
:102700006F5F7F4F83E592E00E943217811105C011
:1027100083E592E00E94291381110E94FF1286E056
:10272000FE013196A3E5B2E001900D928A95E1F7A2
:102730002696E3E00C94221F209109018AE0289F4D
:10274000900111242417350720F69F5F90935102C2
:1027500002C09F3FD1F71B81112359F00E94B51190
:102760009FEF11160CF491E0899F802D1124809326
:1027700055021C81112359F00E94B5119FEF1116CB
:102780000CF491E0899F802D1124809356023091A2
:102790005502332309F49DCF20915602222309F4D8
:1027A00098CF45EB3403C0011124992359F090933D
:1027B000550245EB240390011124332339F0309363
:1027C000560287CF81E080935502F3CF81E080935A
:1027D00056027FCF209105018AE0289F90011124A5
:1027E0002417350708F08BCF9F5F9093500202C0EB
:1027F0009F3FD1F71D81112359F00E94F3119FEFE4
:1028000011160CF491E0899F802D112480935702BA
:102810001E81112359F00E94F3119FEF11160CF441
:1028200091E0899F802D11248093580230915702A6
:10283000332309F464CF20915802222309F45FCF97
:1028400045EB3403C0011124992359F090935702AA
:1028500045EB240390011124332339F030935802BF
:102860004ECF81E080935702F3CF81E080935802EE
:1028700046CFCF93DF93EC01FB018281882309F4DB
:10288000D2C09E0130572332310508F0B2C00E94F9
:10289000990C9093880280938702FE01E150F047E3
:1028A000E232F10520F4E855F04E0C94F11E8091CF
:1028B000870281608093870293C08091880288603C
:1028C000809388028DC0809187028260F3CF8091CF
:1028D00087028460EFCF809187028860EBCF809180
:1028E00088028160EDCF809188028260E9CF80917B
:1028F00087028061DFCF809187028062DBCF809189
:1029000087028064D7CF0E94EF068091870280689B
:10291000D1CF809187028C60CDCF80918802836077
:10292000CFCF809187028E7FC5CF80918802877F2D
:10293000C7CF809187028D7FBDCF809187028B7F2B
:10294000B9CF80918702877FB5CF809188028E7F33
:10295000B7CF809188028D7FB3CF809187028F7E21
:10296000A9CF809187028F7DA5CF809187028F7B31
:10297000A1CF0E94EF06809187028F779BCF809135
:102980008702837F97CF809188028C7F99CF809137
:10299000870282FB992790F921E0922790FB82F928
:1029A00090FB83F987CF80918802982F9095917042
:1029B0008E7F892B90FB81F983CF90918702892F9D
:1029C0008F7B96FF806476CF0E94EF0690918702FE
:1029D000892F97FB87F980586DCF81E00E94160DF3
:1029E00080918702909188020E949E0C0E94EF06BF
:1029F00080E0DF91CF91089580E0F0CF9091870241
:102A0000892F8F7E94FF806155CF90918702892F07
:102A10008E7F90FF81604ECF90918802892F877FB3
:102A200093FF88604DCF81E0E4CFCF93DF93EB013C
:102A300086319C4711F50E94960B9A81992399F053
:102A40008A7A91E009F490E090935902811109C0CB
:102A500089E20E946E0B0E94D70B80E0DF91CF913C
:102A6000089585E3F6CF80915902811104C089E26F
:102A70000E94760BF0CF85E3FBCF81E0EFCF0F9381
:102A80001F93CF93DF93C42FD22FFC018281882321
:102A9000C9F040935C020E94E21790935B0280931E
:102AA0005A0280E28C0F883040F4C77081E001C088
:102AB000880FCA95EAF70E948504DF91CF911F9194
:102AC0000F91089510915C02141332C080915A0244
:102AD00090915B020E94FA17883C910548F5C0E28C
:102AE000CD0F1D17B9F080E2810F883040F41770C8
:102AF00081E001C0880F1A95EAF70E948C04C83063
:102B000048F481E09D2F977001C0880F9A95EAF7ED
:102B10000E948504802F0E947C04C83070F6D77014
:102B200081E001C0880FDA95EAF70E948C04C5CFD6
:102B300080E28C0F883008F6C77081E001C0880FF2
:102B4000CA95EAF7F2CF0F93DB0188519C47873093
:102B50009105A0F5FC01E653F04E0C94F11E06E23F
:102B600021EE41EE6AE17CE7CD010E943F1580E055
:102B70000F91089507E225EE45EE6BE17CE7F4CF77
:102B800006E221EE40EE68E17CE7EECF07E225EEBB
:102B900044EE69E17CE7E8CF06E221EE42EE6CE12B
:102BA0007CE7E2CF07E225EE46EE6DE17CE7DCCF85
:102BB00008E221E045EE6EE17CE7D6CF12968C91DB
:102BC000882319F010925C02D3CF81E0D1CF90938B
:102BD0009701809396010895909362028093610219
:102BE0000895E0916102F0916202309729F001901E
:102BF000F081E02D0995089580E00895E09161024B
:102C0000F0916202309799F020911201222359F03D
:102C10002091870227FF07C0DC012C9111962C938D
:102C2000119726E02C930280F381E02D09950895F9
:102C3000E0916102F0916202309739F022E0DC010C
:102C40002C930480F581E02D09950895A3E0B0E070
:102C5000ECE2F6E10C94071F20915F0230916002D4
:102C600028173907A1F09093600280935F02E091EA
:102C70006102F0916202309751F023E029839B8337
:102C80008A830680F781E02DCE010196099523966F
:102C9000E2E00C94231FA3E0B0E0E1E5F6E10C9440
:102CA000071F20915D0230915E0228173907A1F0BD
:102CB00090935E0280935D02E0916102F091620266
:102CC000309751F024E029839B838A830680F78123
:102CD000E02DCE01019609952396E2E00C94231F86
:102CE000FC01329680911201882321F080918702A5
:102CF0009EE187FF96E080E0915008F408952191CD
:102D00002223D1F38F5FF8CF662301F120911201C6
:102D10002223F1F02091870227FF1AC0462F469503
:102D2000469546954E3190F4677021E030E002C040
:102D3000220F331F6A95E2F7840F911DFC018281F7
:102D400090E02823392381E0232B69F480E0089563
:102D5000FC01329608962191261721F0E817F90711
:102D6000D1F7F4CF81E008959C01FC0132969FEFEA
:102D700080E04191461751F09F3F19F4411101C085
:102D8000982F8F5F8630A9F79F3F09F40895290F88
:102D9000311D97FD3A95F90162830895FC01329641
:102DA00008962191261303C0DF0111971C92E817A2
:102DB000F907B9F70895E62FE695E695E695EE3121
:102DC00068F4E80FF92FF11D677021E030E001C0D1
:102DD000220F6A95EAF78281822B82830895E62F7B
:102DE000E695E695E695EE3170F4E80FF92FF11DC2
:102DF000677021E030E001C0220F6A95EAF7209564
:102E0000828128232283089520911201222339F000
:102E10002091870227FF03C00E94DB1608950E94BD
:102E2000B416089520911201222339F020918702CF
:102E300027FF03C00E94EF1608950E94CE16089542
:102E4000FC01329680911201882351F08091870213
:102E500087FF06C08EE1DF011D928A95E9F708958C
:102E600086E0F9CF46E050E00E94421F21E0892B26
:102E700009F420E0822F089508950E943C170895D8
:102E8000811106C081E0809363020E943D1708957E
:102E900082E0F9CF83E0809363020E943D1708959A
:102EA0000E944017089581E0809363020E943D17BD
:102EB00008950E9453170895089508950E945D177C
:102EC0000895089508950E945C170895CF930E9475
:102ED00061170E941F110E946217C0E08C2F0E9490
:102EE0005410892B31F4CF5FC430C1F780E0CF910B
:102EF000089581E0FCCF85B7806885BF85B780687D
:102F000085BF08951F921FB61F9211248F939F9320
:102F1000AF93BF9380916402811113C08091990295
:102F200090919A02A0919B02B0919C024196A11DA2
:102F3000B11D8093990290939A02A0939B02B09343
:102F40009C02BF91AF919F918F911F901FBE1F90C8
:102F500018958091A102843031F10E94560310929D
:102F6000640288E190E020E40FB6F894A89580937D
:102F700060000FBE2093600083B7817F846083BFB1
:102F800083B7816083BF7894889583B78E7F83BF32
:102F90000FB6F894A89580916000886180936000D6
:102FA000109260000FBE08950E94EF060E945B031E
:102FB000089582E084BD93E095BD9AEF97BD80931C
:102FC0006E0008952FB7F8948091990290919A021B
:102FD000A0919B02B0919C022FBF08952FB7F89447
:102FE0006091990270919A0280919B0290919C024B
:102FF0002FBF08959C014FB7F8948091990290914A
:103000009A02A0919B02B0919C024FBF821B930B2E
:10301000089578941F921FB61F9211248F939F9347
:10302000AF93BF938091990290919A02A0919B02D5
:10303000B0919C020196A11DB11D809399029093BD
:103040009A02A0939B02B0939C02BF91AF919F9173
:103050008F911F901FBE1F90189587E797E7909359
:1030600001088093000888E19AE00FB6F894A895CB
:10307000809360000FBE90936000FFCF88E19AE0DC
:103080000FB6F894A895809360000FBE90936000EF
:10309000FFCF8091850208959B01BA019091A10212
:1030A0009430E9F48F708093E9009FEF8091E800FD
:1030B000915085FD06C085ED8A95F1F700009111CC
:1030C000F5CF8091E80085FF0AC050E040E0C901DB
:1030D0000E94561A8091E8008E778093E800089548
:1030E00043E050E0BC0182E00E944C18089546E0A5
:1030F00050E0BC0182E00E944C180895CF93DF930A
:10310000EC0180911201811111C048E050E0BE0134
:1031100081E00E944C1880E2FE01A5E6B2E0019039
:103120000D928A95E1F7DF91CF9108958091870202
:1031300087FF05C040E282E050E0BE01EACF48E0F0
:1031400081E0FACF8091A002811109C00E94E61BA4
:103150000E94431C8091E20084608093E200089505
:103160001092A00208950E945317089560919D0245
:1031700081E0611101C080E00E944A17089590919A
:10318000A10281E0943009F080E060919D020E94EC
:103190005017089542E061EC81E00E94621B42E218
:1031A00061EC82E00E94621B9091A10281E0943068
:1031B00009F080E060919D020E944017089580917F
:1031C000A302833009F461C030F48130D1F1823040
:1031D00009F49EC008958A3009F48AC08B3009F43E
:1031E0006FC0893009F050C08091A202813209F08D
:1031F0004BC08091A6029091A702029708F044C0AC
:103200008091E800877F8093E8008091E80082FF4A
:1032100037C09091F3008091F200029731F48091D1
:10322000F100813011F0863021F48091F10080931B
:1032300085028091E8008B778093E8000E94961BBE
:1032400023C08091A202813AF9F48091E800877F3F
:103250008093E8008091A6029091A702892B61F4E7
:1032600060E285E692E070E00E94A51A8091E80095
:103270008B778093E800089560E090E080E0F3CFE2
:103280008091A1028111C1CF08958091A202813A5B
:10329000D9F78091A6029091A702892BA9F7809176
:1032A000E800877F8093E8008091E80080FFFCCFF2
:1032B000809112018093F1008091E8008E77BCCF5D
:1032C0008091A202813201F78091A6029091A7021B
:1032D000892BD1F68091E800877F8093E8000E94D7
:1032E000961B8091A402809312010E94EF0608951C
:1032F0008091A202813241F68091E800877F80931D
:10330000E8000E94961B8091A50280938602089592
:103310008091A202813A09F0B7CF8091E800877FBF
:103320008093E8008091E80080FFFCCF80918602C6
:10333000C1CF84B7877F84BF0FB6F894A8958091DA
:103340006000886180936000109260000FBE80E88A
:1033500090E00FB6F89480936100909361000FBEE7
:103360000E94591708950E94E61B0E94431CE2EE3A
:10337000F0E080818460808378940E94C21E08956A
:103380008AE091E00E94EC1508958091A1028530B9
:1033900031F48091A102853019F00E94D41708956C
:1033A0000E94A91780919F02882399F30E946617B3
:1033B000882379F30E94401A0E94EF06EACF08950D
:1033C0009A014091A8025091A9020E94E81908951B
:1033D000492F55274330510519F168F44130510503
:1033E00009F444C04230510509F445C090E080E042
:1033F00050E040E025C04132510549F142325105CB
:10340000A9F780E490E043E754E061157105C1F04D
:1034100086EB90E04DEB53E06130710589F0E6CF2B
:1034200099278130910581F0009729F00297F1F6F4
:10343000ECE4F3E002C0ECE6F3E0849190E0AF014D
:10344000F901518340830895ECE5F3E0F6CF89E07C
:1034500090E042E853E06115710591F389E090E056
:103460004BE953E06130710559F3C0CF82E190E040
:103470004BEA53E0E5CF8BE390E040E753E0E0CF49
:1034800080E189BD82E189BD09B400FEFDCF809154
:10349000D8008F7D8093D8008091E0008260809377
:1034A000E0008091E00081FDFCCF0895AF92BF92D3
:1034B000CF92DF92FF920F931F93CF93DF936C0114
:1034C000EB018A010E94B51BF82E811123C0011562
:1034D000110539F0F80180819181C81BD90BC80E04
:1034E000D91EB12CA12C2097A9F08091E80085FD70
:1034F00022C08091E8008E778093E80001151105C5
:10350000A1F0F80180819181A80EB91EB182A0823C
:1035100085E0F82E8F2DDF91CF911F910F91FF90B5
:10352000DF90CF90BF90AF9008950E94B51B882385
:10353000D1F2F82EEFCFF60181916F018093F10067
:103540002197FFEFAF1ABF0ACECFFC018091A802EE
:103550009091A90286179707A0F06115710529F4CB
:103560009091E8009E779093E80090E061157105D6
:1035700051F4911108C08091E80082FF34C080E0CE
:103580000895BC01F2CF8091A1028823C1F185305A
:10359000C1F18091E80083FD30C08091E80082FD98
:1035A000EACF8091E80080FFE1CF8091F300209185
:1035B000F200382F6115710519F02830310558F0E7
:1035C00091E02830310509F090E02091E8002E7755
:1035D0002093E800CBCF81918093F1006150710975
:1035E0002F5F3F4FE7CF8091A102882341F08530C4
:1035F00041F08091E80083FFBECF81E0089582E032
:10360000089583E00895FC018091A8029091A90299
:1036100086179707A0F06115710529F48091E800DD
:103620008E778093E80090E06115710551F4911157
:1036300008C08091E80082FF35C080E00895BC0199
:10364000F2CF8091A1028823C9F18530C9F1809120
:10365000E80083FD31C08091E80082FDEACF8091CF
:10366000E80080FFE1CF8091F3002091F200382F35
:103670006115710519F02830310558F091E02830B6
:10368000310509F090E08091E8008E778093E800A2
:10369000CBCF84918093F1003196615071092F5FF7
:1036A0003F4FE6CF8091A102882341F0853041F061
:1036B0008091E80083FFBDCF81E0089582E0089506
:1036C00083E00895982F973028F08F708093E90059
:1036D00081E008959093E900242F762F50E0981709
:1036E00031F07091EC002091ED005091F00021FD3F
:1036F00002C09F5FE8CF3091EB003E7F3093EB003C
:103700003091ED003D7F3093ED003091EB00316062
:103710003093EB007093EC002093ED005093F00099
:103720002091EE0027FDE5CF80E008958091A20270
:1037300087FF13C08091E80082FF06C08091E800F7
:103740008B778093E80004C08091A1028111F2CFB1
:1037500008958091A1028823D9F38091E80080FF29
:10376000F8CF8091E8008E77ECCF2091E400309183
:10377000E50095E6A9012091EC00822F817020FFE1
:1037800006C08091E80080FF06C080E00895209187
:10379000E80022FD1AC08091A102882389F08530BB
:1037A00089F08091EB0085FD0FC02091E4003091FD
:1037B000E50042175307F9F29150E1F684E00895CD
:1037C00082E0089583E0089581E008950E94551CE9
:1037D0000E945D1CE0EEF0E0808181608083E8ED76
:1037E000F0E080818F77808319BCA7EDB0E08C91E9
:1037F0008E7F8C9380818F7E80831092A0020895AB
:103800000F931F93CF93DF930E94551C0E945D1C62
:10381000C8EDD0E088818F7788838881806888832D
:1038200088818F7D888319BC1092A10210929D021D
:1038300010929F0210929E0200EE10E0F80180812B
:103840008B7F808388818160888342E060E080E0B4
:103850000E94621BE1EEF0E080818E7F8083E2EEC9
:10386000F0E0808181608083808188608083F801BE
:1038700080818E7F8083888180618883DF91CF9172
:103880001F910F910895E8EDF0E080818F7E808395
:10389000E7EDF0E080818160808384E082BF81E099
:1038A0008093A0020E94001C0895E8EDF0E0808162
:1038B0008E7F80831092E20008951092DA001092B9
:1038C000E10008951F920F920FB60F9211242F93CB
:1038D0003F934F935F936F937F938F939F93AF9398
:1038E000BF93EF93FF938091E10082FF0BC0809123
:1038F000E20082FF07C08091E1008B7F8093E100AE
:103900000E94C11E8091DA0080FF19C08091D8000A
:1039100080FF15C08091DA008E7F8093DA0080915D
:10392000D90080FF96C080E189BD82E189BD09B4DC
:1039300000FEFDCF81E08093A1020E94A218809139
:10394000E10080FF19C08091E20080FF15C08091E6
:10395000E2008E7F8093E2008091E200806180939C
:10396000E2008091D80080628093D80019BC85E085
:103970008093A1020E94B6188091E10084FF2BC0C1
:103980008091E20084FF27C080E189BD82E189BD8A
:1039900089B5982F917080FFFBCF8091D8008F7DE3
:1039A0008093D8008091E1008F7E8093E100809128
:1039B000E2008F7E8093E2008091E200816080933C
:1039C000E20080919D02882309F449C084E080933D
:1039D000A1020E94BF188091E10083FF29C080915D
:1039E000E20083FF25C08091E100877F8093E100A2
:1039F00082E08093A10210929D028091E1008E7F6F
:103A00008093E1008091E2008E7F8093E2008091BC
:103A1000E20080618093E20042E060E080E00E948A
:103A2000621B8091F00088608093F0000E94B318C0
:103A3000FF91EF91BF91AF919F918F917F916F9186
:103A40005F914F913F912F910F900FBE0F901F905C
:103A5000189519BC1092A1020E94B01870CF8091E5
:103A6000E30087FD93E09093A102B3CF1F920F92E2
:103A70000FB60F9211242F933F934F935F936F9341
:103A80007F938F939F93AF93BF93CF93DF93EF93E6
:103A9000FF93D091E900DF708091EC00C82FC170D6
:103AA00080FDC0E81092E9008091F000877F80934C
:103AB000F00078940E947A1D1092E9008091F00045
:103AC00088608093F000CD2BCF70C093E900FF9108
:103AD000EF91DF91CF91BF91AF919F918F917F91A6
:103AE0006F915F914F913F912F910F900FBE0F906B
:103AF0001F901895AAE2B0E0E0E8FDE10C94061FE3
:103B000082EA92E02091F100FC012193CF01F2E0E2
:103B10008A3A9F07B9F70E94DF188091E80083FF77
:103B20001EC18091A2029091A3029A3008F017C1A1
:103B3000E92FF0E0EF52F04E0C94F11E803899F02E
:103B4000823809F00CC18091A6028F70873008F08E
:103B500006C18093E9008091EB0085FB882780F9FE
:103B60001092E90006C080919E0290919F029111EF
:103B700082609091E800977F9093E8008093F10035
:103B80001092F1008091E8008E77E5C0882309F457
:103B9000D3C0823009F0E3C08091A4028111D6C065
:103BA0008091A6028F702FEF280F263008F0D7C023
:103BB0008093E9002091EB0020FFC8C0933031F4DE
:103BC0008091EB0080628093EB00C0C09091EB008D
:103BD00090619093EB0021E030E001C0220F8A95C4
:103BE000EAF72093EA001092EA008091EB008860E7
:103BF000EACF8111B4C01091A4021F778091E30035
:103C00008078812B8093E3008091E800877F809308
:103C1000E8000E94961B8091E80080FFFCCF809115
:103C2000E30080688093E30082E0111183E08093D9
:103C3000A10295C08058823008F091C08091A40202
:103C40009091A5028C3D23E09207A1F583E08A8341
:103C50008AE289834FB7F894DE01139620E03EE0B4
:103C600051E2E32FF0E050935700E49120FF03C0AE
:103C7000E295EF703F5FEF708E2F90E0EA30C0F07A
:103C8000C7968D939D932F5F243159F74FBF809135
:103C9000E800877F8093E8006AE270E0CE01019639
:103CA0000E94A51A8091E8008B778093E80057C0A6
:103CB000C096E7CF6091A6027091A702AE014F5F58
:103CC0005F4F0E94E019BC01892B09F448C0909114
:103CD000E800977F9093E80089819A810E94031BF6
:103CE000E1CF8038E1F58091E800877F8093E8009C
:103CF00080919D028093F10045CF811130C0909159
:103D0000A402923060F58091E800877F8093E800FC
:103D100090939D020E94961B80919D02882311F032
:103D200084E005C08091E30087FDFACF81E08093B5
:103D3000A1020E94CA1813C08091A402813079F4B4
:103D400081E0933009F080E080939F021092E900B7
:103D50008091E800877F8093E8000E94961B809105
:103D6000E80083FF0AC08091E800877F8093E80025
:103D70008091EB0080628093EB00AA96E3E00C94C4
:103D8000221F0895CF938091A1028823A1F0C091B2
:103D9000E900CF709091EC00892F817090FD80E850
:103DA000C82B1092E9008091E80083FD0E947A1DE3
:103DB000CF70C093E900CF91089597FB072E16F4BA
:103DC000009407D077FD09D00E942E1F07FC05D074
:103DD0003EF4909581959F4F0895709561957F4F22
:103DE0000895EE0FFF1F0590F491E02D09942F9296
:103DF0003F924F925F926F927F928F929F92AF927B
:103E0000BF92CF92DF92EF92FF920F931F93CF93C7
:103E1000DF93CDB7DEB7CA1BDB0B0FB6F894DEBF5E
:103E20000FBECDBF09942A88398848885F846E8484
:103E30007D848C849B84AA84B984C884DF80EE80CE
:103E4000FD800C811B81AA81B981CE0FD11D0FB6D7
:103E5000F894DEBF0FBECDBFED010895AA1BBB1BBA
:103E600051E107C0AA1FBB1FA617B70710F0A61B7A
:103E7000B70B881F991F5A95A9F780959095BC019B
:103E8000CD010895FB01DC0104C08D9101908019E2
:103E900021F441505040C8F7881B990B0895FB014D
:103EA000DC0102C001900D9241505040D8F70895B6
:103EB000F999FECF92BD81BDF89A992780B50895F2
:103EC000A8E1B0E042E050E00C948C1F262FF99955
:103ED000FECF92BD81BDF89A019700B4021639F069
:103EE0001FBA20BD0FB6F894FA9AF99A0FBE08953A
:103EF0000396272F0E94671F0E94661F252F0E948E
:103F0000671F242F0C94671F0196272F0E94671F9D
:103F10000C94661FDC01CB01FC01F999FECF06C0B1
:103F2000F2BDE1BDF89A319600B40D924150504077
:103F3000B8F70895F894FFCFD204D20423052305DF
:103F40009605B20501050105B705280637063706AF
:103F5000911405159914631467149D146B14A1141E
:103F6000AD147714FE147B14B1147F14B514DD1452
:103F70008314B914E4148914BF14C7146F14A5145E
:103F80007314A9148D14C314D314ED14FC145D140C
:103F900095140C15C015C615AF15BA15CC15D2154C
:103FA000D8159E1DC61DAF1EC61DAF1EF91D1A1EBB
:063FB000AF1E711E7D1E14
:103FB6001402280850011E0A140149187E187718A1
:103FC600701801E200E900EA00B500B600B700CDBE
:103FD600008301CC008A019201940121022302246C
:103FE600022502260227022A02B300B4006F0070DF
:103FF600009F01CB019F02A002818283E200E900BB
:10400600EA00B500B600B700CD008301CC008A01F6
:10401600920194012102230224022502260227028C
:104026002A02B300B4006F0070009F01CB019F020B
:10403600A002818283F4F53534C6976694909192F6
:0640460093F63332360050
:00000001FF
